:100000000C9446000C9463000C9463000C94630001
:100010000C9463000C9463000C9463000C946300D4
:100020000C9463000C94170A0C9463000C94630006
:100030000C9463000C9463000C94F2090C9463001C
:100040000C94CD090C9463000C9463000C94630031
:100050000C9463000C94C10C0C9463000C9463002A
:100060000C9463000C9463000C9463000C94630084
:100070000C9463000C9463000C94A30A0C9463002A
:100080000C9463000C9463000C94630011241FBE55
:10009000CFEFD0E1DEBFCDBF1DE0A0E0B1E0E2E2F6
:1000A000FCE402C005900D92AA37B107D9F71FE012
:1000B000AAE7BDE001C01D92A632B107E1F70E9498
:1000C000E3080C9410260C9400002F923F924F925C
:1000D0005F926F927F928F929F92AF92BF92CF92D8
:1000E000DF92EF92FF920F931F93CF93DF93CDB7E1
:1000F000DEB72A970FB6F894DEBF0FBECDBF1C0146
:100100005A016B012D831F830E8327FF02C01D82BE
:1001100005C02D81263214F065E26D831886210119
:10012000C10188969A87898720E030E040E050E05E
:10013000C601B5010E94EA2388235CF4EE81FF81A9
:1001400080819181826091838083D7FAD094D7F89F
:10015000D094AE014F5F5F4FC601B5010E944A24A3
:100160005B016C0189819A81AB81BC8120E030E028
:1001700040E050E0BC01CD010E94EA23882309F44D
:100180004AC009851A852AC02DEC3CEC4CEC5DE395
:10019000C401B3010E947A24DC01CB01AE014F5FA0
:1001A0005F4FBC01CD010E944A24DC01CB012AE94A
:1001B00039E941E251E4BC01CD010E947A24DC011D
:1001C000CB01BC01CD010E94CF23DC01CB01805DBE
:1001D000F80182938F01F885FF5FF88769807A8044
:1001E0008B809C8020E030E040E050E0C401B3010F
:1001F0000E94EA23882319F02016310628F2898507
:100200009A850817190768F5F80181918F01F201A5
:1002100081932F01F4CF20E030E040E050E0C601B0
:10022000B5010E94ED231816E4F405C057016801DA
:1002300098859150988720E030E040E251E4C60173
:10024000B5010E947A247B018C0120E030E040E877
:100250005FE30E94EA2387FDE9CFE982FA820B83FC
:100260001C83EE81FF814081518153FF15C0F885C9
:10027000FD3F94F02F2F332727FD30956D81862F7A
:10028000992787FD90950196281739072CF454601B
:10029000EE81FF8151834083EE81FF8180819181D6
:1002A0009C012070347092FD03C0FD81FF5FFD83CF
:1002B0006D81062F112707FD1095020D131D232BAD
:1002C00039F0E8858E2F992787FD9095080F191F23
:1002D0000215130520F5F10158C089859A85481645
:1002E000590600F520E030E040E251E4C601B501D6
:1002F0000E947A24AE014F5F5F4F0E944A245B0147
:100300006C0189819A81AB81BC81BC01CD010E94C5
:10031000CF23DC01CB01805DF20181932F01041515
:100320001505D8F6E985FA850E171F0718F0F101B3
:1003300017A22CC02801F80180818B5F80838A334B
:100340001CF120E331E3F80120832016310628F464
:1003500082918F018F5F808313C0F8013083F8850D
:10036000FF5FF887EE81FF818081918192FF08C055
:100370002414350410F4F20120830894411C511C0C
:10038000F80180818A33FCF6F2011082F8858F2F04
:10039000992787FD90952A960FB6F894DEBF0FBE79
:1003A000CDBFDF91CF911F910F91FF90EF90DF9024
:1003B000CF90BF90AF909F908F907F906F905F9005
:1003C0004F903F902F9008952F923F924F925F92BF
:1003D0006F927F928F929F92AF92BF92CF92DF9255
:1003E000EF92FF920F931F93CF93DF93CDB7DEB7BA
:1003F000EE970FB6F894DEBF0FBECDBF88249924C8
:1004000054013C0178AF6FAB1A011EAA1DAAFC0172
:1004100017821682838181FD1CC48FEF9FEF2CC44D
:100420008FA998AD019698AF8FAB6DA97EA960FF9B
:10043000FCC389AD80538A30C8F499AD903331F450
:10044000552021F463FD02C07160A9C18AE0589E65
:10045000502C1124E9AD5E0EF0ED5F0E57FE02C088
:100460007FE7572E63FDF5C3452CF3C329AD255611
:100470002EAF233028F089AD8554833008F01CC19D
:10048000F10184E090E0280E391EE080F1800281C5
:1004900013814701580163FD02C056E0552E47EB1A
:1004A000C42E4FEFD42EC622D722DEAACDAAC80171
:1004B000B7010E943A24892BB9F08EE48B8389839B
:1004C00081E48A83FE013496FCAFEBAFFEADF330DE
:1004D00008F0ABC28981805E89838A81805E8A83CD
:1004E0008B81805E8B83A1C2C801B7010E94412429
:1004F000892BC9F089E48B838EE48A8386E489831F
:10050000CE0104969CAF8BAF20E030E040E050E09D
:10051000C801B7010E94EA238823C4F68DE28C83C8
:10052000FE013596D1CF80E092E0C82AD92ADEAA12
:10053000CDAAE9AD8E2F992787FD90958734910537
:1005400009F45CC0883491053CF48534910599F038
:100550008634910561F17DC38636910541F1873678
:10056000910524F48536910531F073C387369105E2
:1005700009F444C06EC38E010B5C1F4F252DB501DD
:10058000A401CE010D960E9465008DAFFCEF4F0EC9
:1005900015140CF44A94CE010D969CAF8BAFFC0160
:1005A00001900020E9F731978E2E881ABDC18DA9E0
:1005B0009EA994609EAB8DAB8E010B5C1F4F252DC9
:1005C000B501A401CE010D960E9465008DAF1514F2
:1005D0000CF44A94FE013D96FCAFEBAFFDAD1F1647
:1005E00054F4EBADFCAD01900020E9F731978E2E6D
:1005F0002BAD821A99C1852C839496C18DA99EA991
:1006000098609EAB8DAB252D552009F421E03DE08F
:10061000E32EF12CEC0EFD1E8E010B5C1F4FB5017D
:10062000A401C7010E9465008DAF8DA99EA992FF0C
:1006300024C08DAD850D8150882E87FD12C08DADF3
:1006400088167CF0E82DFF27E7FDF095EE0DFF1DE5
:100650008081803331F48A9487FC03C09DAD891674
:100660008CF787FC03C0EDAD8E1614F4552415C02D
:10067000582CFDAD5F1A539410C0852C151464F4EA
:10068000E82DFF27E7FDF095EE0DFF1D80818033FB
:1006900019F48A941814A4F3582CE82DFF27E7FDC9
:1006A000F095EC0FFD1F16868DA99EA992FD8FCFA8
:1006B00029AD225029AF6ACF63FF04C0552011F441
:1006C00021E0522EE9AD8E2F992787FD909589362E
:1006D000910509F4A5C08A3691057CF5833591050D
:1006E00009F483C084359105BCF48B32910509F47B
:1006F00043C08C3291054CF48032910509F43FC01F
:100700008332910509F443C08AC28D329105E9F123
:100710008E329105F1F183C28336910509F442C00E
:10072000843691052CF48835910509F4AEC077C262
:100730008436910509F474C072C28037910509F4BA
:100740009FC08137910544F48C36910539F18F367D
:10075000910509F492C063C28537910509F497C0E9
:100760008637910524F48337910521F158C28837E3
:10077000910509F48AC053C260617EAB6DAB8DA94F
:100780009EA980629EAB8DAB64C2606808C0606445
:1007900006C068607EAB6DAB55245BC264607EAB07
:1007A0006DAB57C2F10182E090E0280E391E8080C7
:1007B0004A943BC1F10182E090E0280E391EA081ED
:1007C000B1814D0163FF09C0852D992787FD909563
:1007D000BC01CD010E94D81E1FC0FD010190002068
:1007E000E9F73197EA1BEAAF18C0F10182E090E027
:1007F000280E391E0190F081E02D4F0163FF09C0E2
:10080000852D992787FD9095BC01CF010E94CD1EB3
:1008100003C0CF010E94C41E8AAF9AAD491A05C118
:1008200062FF0AC0F10184E090E0280E391E2081A9
:100830003181428153810CC0F10182E090E0280EA9
:10084000391E808191819C01442737FD4095542FAA
:1008500049015A0157FF0BC062607EAB6DABB0948B
:10086000A09490948094811C911CA11CB11C8DA912
:100870009EA98F7B9EAB8DAB27C098E09AAF07C037
:1008800060647EAB6DABE8E7E9AFF0E1FAAF6DA96C
:100890007EA962FF0AC0F10184E090E0280E391EB3
:1008A00020813181428153810AC0F10182E090E0D0
:1008B000280E391E808191819C01442755274901CA
:1008C0005A016F7C7EAB6DABFE013196FCAFEBAF96
:1008D0006F01FAADEF2EFF2400271127C501B401E7
:1008E000A80197010E944425DC01CB01EBADFCADD2
:1008F00080838A3024F0F9AD8F0F815201C0805D72
:10090000EBADFCAD8193FCAFEBAFC501B401A80129
:1009100097010E94442549015A01211531054105DD
:100920005105E1F68BAC8C184DA95EA9CA01827302
:100930009070892B09F04A9446FF0DC0842D9927A9
:1009400087FD9095FAADF03121F49EEF492E480EC7
:1009500002C0482E4A9443FF0EC0252D332727FDA1
:100960003095882D99278217930724F0477F5EAB37
:100970004DAB01C058188DA99EA983FF02C0451830
:1009800001C0481880789170892B51F4842D4A94C5
:10099000181634F4B30180E290E00E942A1FF6CFCB
:1009A0008DA99EA981FF04C0B3018DE290E00BC028
:1009B00084FF04C0B3018BE290E005C085FF05C051
:1009C000B30180E290E00E942A1F8DA99EA986FFB4
:1009D00010C0B30180E390E00E942A1F2AAD2031AD
:1009E00041F4B301E9AD8E2F992787FD90950E94C0
:1009F0002A1F8DA99EA990FF0AC0842D4A9418161B
:100A000034F4B30180E390E00E942A1FF6CF8DA951
:100A10009EA983FF0AC0852D5A94181634F4B30199
:100A200080E390E00E942A1FF6CF8DA987FD0AC0BF
:100A3000842D4A94181634F4B30180E290E00E94A9
:100A40002A1FF6CFF9ADF33631F4882DB30199277B
:100A500087FD9095C0C029AD2337B9F48AAD815088
:100A60008AAF8F3F09F4CEC0F40180810894811CC5
:100A7000911CB301992787FD90950E942A1F9AAD7A
:100A800091509AAF9F3F81F7BDC0E9ADE33581F446
:100A9000FAADF150FAAFFF3F09F4B4C0F40184910C
:100AA000B30199270E942A1F0894811C911CF0CF42
:100AB0008DA99EA991FF92C092FF1DC02DAD121667
:100AC000B4F421502DAF2F3F81F0EBADFCAD8191FF
:100AD000FCAFEBAFB301992787FD90950E942A1FC9
:100AE000FDADF150FDAFFF3F81F71DAE0FC0B3016B
:100AF00080E390E009C0EBADFCAD8191FCAFEBAFC2
:100B0000B301992787FD90950E942A1F15142CF494
:100B1000B3018EE290E00E942A1F8DA99EA992FF48
:100B200020C08DADF82FFF5FFDAF0DC0852D5A940D
:100B30001816BCF4B30180E390E00E942A1F8DAD2B
:100B4000282F2F5F2DAF88238CF30BC0852D5A944F
:100B500018167CF4882DB301992787FD90950E9483
:100B60002A1FEBADFCAD8191FCAFEBAF882E882343
:100B700069F78DA99EA992FD45C0B301F9AD8F2FEC
:100B8000992787FD90950E942A1F2DAD21502DAFEA
:100B900027FF09C0B3018DE290E00E942A1F8DADAE
:100BA00081958DAF05C0B3018BE290E00E942A1FB2
:100BB0006AE070E0EDAD8E2F992787FD90950E9439
:100BC00031254B015C01B301C401C0960E942A1F6C
:100BD000B301C501C0960E942A1F14C08E010F5F89
:100BE0001F4F8BAD9CAD8017910761F0EBADFCAD55
:100BF0008291FCAFEBAFB301992787FD90950E94DE
:100C00002A1FEFCF8DA987FF0DC0842D4A94181697
:100C10004CF4B30180E290E00E942A1FF6CFB301AA
:100C20000E942A1F1EAA1DAA14C099AD953249F42C
:100C300081E090E09EAB8DAB5524452CEAE0EAAF15
:100C400008C0B301F9AD8F2F992787FD90950E94B9
:100C50002A1FF301838183FF04C0EFA9F8ADF4914B
:100C600003C0EFA9F8ADF081F9AF29AD222309F057
:100C7000D7CBF30186819781EE960FB6F894DEBF4D
:100C80000FBECDBFDF91CF911F910F91FF90EF90DD
:100C9000DF90CF90BF90AF909F908F907F906F909C
:100CA0005F904F903F902F9008958EE190E00E94CA
:100CB000860D80E091E00E94731F0895EF92FF92ED
:100CC0000F931F93CF93DF93CDB7DEB7E0970FB6A7
:100CD000F894DEBF0FBECDBF8C01BE016F5F7F4FAA
:100CE000DB01E2E0F1E089E001900D928150E1F753
:100CF000AE01465F5F4FDA01EBE0F1E086E0019084
:100D00000D928150E1F79E01205F3F4FD901E1E153
:100D1000F1E08CE001900D928150E1F78CE1E82E3A
:100D2000F12CEC0EFD1ED701EDE1F1E085E1019023
:100D30000D928150E1F700FF14C05F934F933F93F2
:100D40002F937F936F9382E391E09F938F930E9401
:100D5000571F8DB79EB708960FB6F8949EBF0FBE6B
:100D60008DBF01FF1AC0CE010A969F938F93CE01CB
:100D700040969F938F93CE0101969F938F938DE31F
:100D800091E09F938F930E94571F8DB79EB708964F
:100D90000FB6F8949EBF0FBE8DBF02FF1AC0CE01E2
:100DA0000A969F938F93CE0140969F938F93CE0187
:100DB00001969F938F9388E491E09F938F930E9475
:100DC000571F8DB79EB708960FB6F8949EBF0FBEFB
:100DD0008DBF03FF1AC0CE010A969F938F93CE0159
:100DE00040969F938F93CE0101969F938F9383E5B7
:100DF00091E09F938F930E94571F8DB79EB70896DF
:100E00000FB6F8949EBF0FBE8DBF04FF1CC0CE016D
:100E10000A969F938F93CE0140969F938F93FF9254
:100E2000EF92CE0101969F938F938EE591E09F9371
:100E30008F930E94571F8DB79EB70A960FB6F894EE
:100E40009EBF0FBE8DBF05FF1EC0CE010A969F93A9
:100E50008F93CE0140969F938F93CE014C969F9394
:100E60008F93CE0101969F938F938AE691E09F9393
:100E70008F930E94571F8DB79EB70A960FB6F894AE
:100E80009EBF0FBE8DBF06FF1EC0CE010A969F9368
:100E90008F93CE0140969F938F93CE014C969F9354
:100EA0008F93CE0101969F938F938AE791E09F9352
:100EB0008F930E94571F8DB79EB70A960FB6F8946E
:100EC0009EBF0FBE8DBF07FF1EC0CE010A969F9327
:100ED0008F93CE0140969F938F93CE014C969F9314
:100EE0008F93CE0101969F938F9386E891E09F9315
:100EF0008F930E94571F8DB79EB70A960FB6F8942E
:100F00009EBF0FBE8DBF012B31F40E94550686E9AE
:100F100091E00E94731F0E945506E0960FB6F89468
:100F2000DEBF0FBECDBFDF91CF911F910F91FF901C
:100F3000EF900895EF920F931F93CF93E62E942F87
:100F400040E050E060E87FE320E030E002E310E0C2
:100F5000C0E0E92FFF27E130F105B1F0E230F10503
:100F60001CF4EF2B39F039C0E230F105C9F03397AA
:100F700009F133C042EB59EC66EA7FE32FE33CE032
:100F800009E81DE0C2E029C0882321F000ED17E048
:100F9000C4E023C027E439E001E41AE0C0E11DC049
:100FA000882311F0C8E019C020E634E000E015E025
:100FB000C0E413C040E050E060E070E424E931E1B7
:100FC0000CE715E1813011F4C82F07C0823011F40D
:100FD000C0E203C0833009F4C0E8892F0E94FA0BF5
:100FE0008F5F9F4F29F480917A0D8C2B80937A0D1F
:100FF000CF911F910F91EF9008958FEA91E00E9499
:10100000731F87B3806C87BB88B38F7388BB6CE218
:1010100071E080E090E00E94A90943E061E0862F42
:101020000E949A0740E061E0862F0E949A0741E003
:10103000642F842F0E949A0742E061E0862F0E946D
:101040009A0764EF71E080E090E00E94A909809126
:101050007A0D99270E945E0687EE91E00E94731F29
:10106000C69A6CE271E080E090E00E94A90941E03C
:10107000642F80E00E949A0764E670E080E090E0D0
:101080000E94A90943E061E082E00E949A078091F2
:101090007A0D99270E945E0687E092E00E94731FF6
:1010A000C79A6CE271E080E090E00E94A90942E0FA
:1010B00061E080E00E949A0764E670E080E090E0E2
:1010C0000E94A90943E061E0842F0E949A07809161
:1010D0007A0D99270E945E06089540E0642F842FC0
:1010E0000E949A0741E060E0862F0E949A0742E042
:1010F00060E0862F0E949A0743E060E0862F0E94FE
:101100009A0780917A0D8111959A0895CF930E9444
:101110003C0A82B3806E82BB81B3806F81BB69E77A
:101120007AE08EE59AE00E94E31E80E00E94730A56
:10113000C3E180E091E00E94731FC150C7FFF9CF67
:1011400087E292E00E94731F87E392E00E94731F80
:101150000E9451090E94DE0B6CE271E080E090E099
:101160000E94A90988E592E00E94731FF89484B751
:10117000806884BF84B7806884BF78946CE271E033
:1011800080E090E00E94A9090E94FD0789E692E0B4
:101190009F938F930E94571F0E94AD140F900F9042
:1011A000813019F487E792E002C08CE892E09F93C7
:1011B0008F930E94571F0F900F9080E091E00E9444
:1011C000731FCF910895CFEFD0E1DEBFCDBF0E9456
:1011D000860880917A0D882359F08EE290E00E9473
:1011E0006C1F68EE73E080E090E00E94A909F1CFE7
:1011F0000E94451580E00E949D0D80E00E94730AC8
:1012000080917A0D882351F50E94790AEC010E94A1
:10121000F5148823C9F483EA92E09F938F930E9488
:10122000571F0F900F900AC08EE290E00E946C1F33
:1012300064EF71E080E090E00E94A9090E94F5143B
:10124000882391F3C0E0D0E08FEFCF3FD80719F0AB
:101250008C2F0E949D0D0E946D08D2CF959888B367
:101260008F7388BB80917A0D99279F938F9386EB1C
:1012700092E09F938F930E94571F80917A0D992738
:101280000E945E060F900F900F900F9064EF71E038
:1012900080E090E00E94A9098EE290E00E946C1F1D
:1012A000F5CF10928F0D1092900D1092910D10921B
:1012B000920D8AE085BD86B7806C86BF87B7806C4B
:1012C00087BF8CE783BD789481E080937B0D089580
:1012D00080918F0D9091900DA091910DB091920DF4
:1012E00023E0B695A795979587952A95D1F7BC01E8
:1012F000CD01089580918F0D9091900DA091910D49
:10130000B091920DBC01CD010895AF92BF92CF92E2
:10131000DF92EF92FF920F931F937B018C010E944B
:101320007A095B016C01AE0CBF1CC01ED11E0E946D
:101330007A09DC01CB018A159B05AC05BD05B8F324
:101340001F910F91FF90EF90DF90CF90BF90AF90E3
:101350000895AF92BF92CF92DF92EF92FF920F93D8
:101360001F937B018C010E9468095B016C01AE0C2C
:10137000BF1CC01ED11E0E946809DC01CB018A156A
:101380009B05AC05BD05B8F31F910F91FF90EF9041
:10139000DF90CF90BF90AF9008951F920F920FB63D
:1013A0000F9211248F939F93AF93BF938091870DDA
:1013B0009091880DA091890DB0918A0D0196A11D83
:1013C000B11D8093870D9093880DA093890DB093E4
:1013D0008A0DBF91AF919F918F910F900FBE0F908B
:1013E0001F9018951F920F920FB60F9211248F9392
:1013F0009F93AF93BF9380918B0D90918C0DA09193
:101400008D0DB0918E0D0196A11DB11D80938B0D98
:1014100090938C0DA0938D0DB0938E0DBF91AF91D5
:101420009F918F910F900FBE0F901F9018951F9254
:101430000F920FB60F9211248F939F93AF93BF9388
:1014400080918F0D9091900DA091910DB091920D82
:101450000196A11DB11D80938F0D9093900DA093C7
:10146000910DB093920DBF91AF919F918F910F907D
:101470000FBE0F901F9018958B9A93988898929A08
:1014800082B18C6182B983B1837E886183B9109205
:10149000980089E18093990080919B008D7F8093D3
:1014A0009B0088E980939A0028E639E040E050E00C
:1014B00067E883E99DE00E94E50A0895282F9927AF
:1014C00087FD90958A30910521F00D9719F42AE057
:1014D00001C02DE080919B0085FFFCCF20939C00F4
:1014E00080E090E0089590E0811191E090937C0D70
:1014F0000895CF93DF93CDB7DEB721970FB6F89459
:10150000DEBF0FBECDBF24EF31E040E050E0BE01B2
:101510006F5F7F4F83E99DE00E94B00B892B41F400
:1015200089818D3019F48AE090E004C0992702C0C7
:101530008FEF9FEF21960FB6F894DEBF0FBECDBFA1
:10154000DF91CF9108951F920F920FB60F92112441
:101550002F933F934F935F936F937F938F939F93BB
:10156000AF93BF93CF93EF93FF93C0919C00809173
:101570007C0D882319F08C2F0E945E0A83E99DE080
:101580000E94010B882349F020E030E040E050E069
:101590006C2F83E99DE00E94430BFF91EF91CF9167
:1015A000BF91AF919F918F917F916F915F914F917B
:1015B0003F912F910F900FBE0F901F901895089597
:1015C00060E070E080E090E00895FC01862F885094
:1015D00080838183128213824115510519F055834E
:1015E000448304C08FED9AE09583848321153105EF
:1015F00019F037832683089580EE9AE097838683D7
:101600000895FC01818199270895AF92BF92CF92EE
:10161000DF92EF92FF920F931F93CF93DF93EC0132
:101620007A018B01EE81FF8109955B016C0119C084
:10163000E114F1040105110589F0EE81FF8109959E
:10164000DC01CB018A199B09AC09BD098E159F05E8
:10165000A007B10718F08FEF9FEF0AC0EC81FD8162
:101660000995CE010E94010B882311F380E090E0E0
:10167000DF91CF911F910F91FF90EF90DF90CF906E
:10168000BF90AF9008951F93CF93DF93EC01162F77
:10169000BA01A901CE010E94050B892B19F08FEF29
:1016A0009FEF16C04A81242F3327F901EC0FFD1F4D
:1016B00010878881992701972817390711F41A8212
:1016C00002C04F5F4A8389818150898380E090E026
:1016D000DF91CF911F910895FC0180819181891B39
:1016E00099270895AF92BF92CF92DF92EF92FF9227
:1016F0000F931F93CF93DF93EC017A018B01EE815F
:10170000FF8109955B016C0119C0E114F104010529
:10171000110589F0EE81FF810995DC01CB018A1961
:101720009B09AC09BD098E159F05A007B10718F0EC
:101730008FEF9FEF0AC0EC81FD810995CE010E94D9
:101740006C0B882311F380E090E0DF91CF911F9123
:101750000F91FF90EF90DF90CF90BF90AF900895E2
:101760000F931F93CF93DF93EC018B01BA01A90173
:10177000CE010E94720B892B19F08FEF9FEF19C0D9
:101780008B81FE01E80FF11D8085F80180834B817C
:10179000242F33278881992701972817390711F4B7
:1017A0001B8202C04F5F4B8389818F5F898380E0FA
:1017B00090E0DF91CF911F910F91089516B810928C
:1017C0008E0086B18E6886B917B887B1806C87B9EC
:1017D00008951092860D97B1907E8F71982B97B9CE
:1017E000369A8091860D8823E1F38091840D909143
:1017F000850D08958F929F92AF92BF92CF92DF9204
:10180000EF92FF920F931F93CF93DF93982EDB01FC
:10181000CA01E90158018E2C20E030E040E251E499
:10182000BC01CD010E947A246B017C01892D0E94AC
:10183000E90B8C01C801AA2797FDA095BA2FBC011E
:10184000CD010E94072517FF06C020E030E040E8E8
:1018500057E40E94C3249B01AC01C701B6010E945A
:101860007A24DC01CB01BC01CD010E94CF23DC0135
:10187000CB018C0116950795169507958820C1F028
:101880001F930F9385E0989EC001112480509D4FB7
:101890009F938F938BE993E09F938F930E94571FA1
:1018A0008DB79EB706960FB6F8949EBF0FBE8DBF3C
:1018B0000C171D0718F0A016B10618F48FEF9FEF54
:1018C00001C0C801DF91CF911F910F91FF90EF9060
:1018D000DF90CF90BF90AF909F908F900895EF9240
:1018E0000F931F931DE18DE290E00E946C1F115039
:1018F00017FFF9CF8AEA93E00E94731F1DE18DE282
:1019000090E00E946C1F115017FFF9CF8BEC93E011
:101910000E94731F91E0E92E00E014E120E030E026
:1019200040E050E060E070E483E00E94FA0B0CE0DD
:101930001DE020E030E044EB58EC66EA7FE380E015
:101940000E94FA0B00E01AE020E030E040E050E0B6
:1019500060E87FE38E2D0E94FA0B20E030E040E04B
:1019600050E060E87FE382E00E94FA0B64EF71E0F0
:1019700080E090E00E94A9091F910F91EF900895D7
:1019800008951F920F920FB60F9211248F939F9379
:1019900084B195B19093850D8093840D81E08093FF
:1019A000860D9F918F910F900FBE0F901F901895ED
:1019B00083EE96E09F938F930E94571F0F900F9096
:1019C0000E94790A8F5F9F4FD9F382E097E00E94CF
:1019D000731F089584E097E00E94731F8CE197E0E5
:1019E0000E94731F89B399279F938F938AB3992776
:1019F0009F938F938BB399279F938F9384E397E063
:101A00009F938F930E94571F86B399279F938F931D
:101A100087B399279F938F9388B399279F938F9329
:101A200082E597E09F938F930E94571F83B3992776
:101A30009F938F9384B399279F938F9385B399270F
:101A40009F938F9380E797E09F938F930E94571FF8
:101A500080B399279F938F9381B399279F938F93F7
:101A600082B399279F938F938EE897E09F938F93EC
:101A70000E94571F8DB79EB780960FB6F8949EBFF1
:101A80000FBE8DBF81B199279F938F9382B1992704
:101A90009F938F9383B199279F938F938CEA97E0BD
:101AA0009F938F930E94571F80B199279F938F9385
:101AB0008091610099279F938F938091620099276D
:101AC0009F938F938AEC97E09F938F930E94571F69
:101AD0008091630099279F938F9380916400992749
:101AE0009F938F938091650099279F938F9388EEA2
:101AF00097E09F938F930E94571F8DB79EB748968C
:101B00000FB6F8949EBF0FBE8DBF08950F931F931D
:101B1000CF93DF938C01C0E0D0E0C817D90740F421
:101B20008DE390E00E946C1F2196C017D107C0F38F
:101B3000DF91CF911F910F910895EF92FF920F9334
:101B40001F93CF93DF93C82FFF24992787FD90958C
:101B50000E946C1F20E030E080917E0D882311F4FC
:101B600021E030E080E090E0C03311F481E090E0CB
:101B7000282B392B232B49F08DEC93E090931B0EEF
:101B800080931A0E81E080937E0D0F2DEF2C20E0C4
:101B900030E0CE3211F421E030E080E090E0C83057
:101BA00011F481E090E0282B392B2115310529F122
:101BB000102FA0911A0EB0911B0E0FC0E12FFF271E
:101BC00053E0EE0FFF1F5A95E1F7E353FC4FED0191
:101BD0009A818381981761F01F5F80E090E01F3148
:101BE00010F481E090E081709070892B39F783C008
:101BF000F0931B0EE0931A0E7EC0A901CF3311F0B3
:101C000041E050E0C901C83611F081E090E048237E
:101C10005923B901FC2FF153F93010F461E070E061
:101C2000C901EC2FE156EA3110F481E090E0862BF7
:101C3000972B6C2F61546A3110F421E030E0822B35
:101C4000932B48235923452B09F455C0F93018F438
:101C500040EDF42E09C0EA3118F439EAF32E04C03D
:101C60006A3120F429ECF22EFC0E01C0FF2410E0B2
:101C700031C0A12FBB2793E0AA0FBB1F9A95E1F7B4
:101C8000A353BC4FE0911A0EF0911B0EED019A8107
:101C900083819817F1F40F5F202F33278F2D992719
:101CA00087FD909528173907A1F48B81882321F0AF
:101CB000B0931B0EA0931A0EFD01C681D781209709
:101CC00031F086E098E00E94731FFE01099581E0E3
:101CD000E82E1F5F80E090E01F3110F481E090E07B
:101CE00020E030E0EE2011F421E030E08223932365
:101CF000892B09F0BECF82E097E00E94731F82E03B
:101D000097E00E94731FE0911A0EF0911B0E8081E4
:101D100091819F938F938AE098E09F938F930E9485
:101D2000571F00E30F900F900F900F90CDECD3E072
:101D30001EE1E0911A0EF0911B0E9A818381981793
:101D400051F50F5F0A3309F401E6888199819F9369
:101D50008F93802F99279F938F9387E198E09F938C
:101D60008F930E94571F8DB79EB706960FB6F894B3
:101D70009EBF0FBE8DBFEC81FD81309709F00995A4
:101D80008B81882341F082E298E09F938F930E9499
:101D9000571F0F900F901150289617FFCACFE09150
:101DA0001A0EF0911B0E8281882341F088E298E0A0
:101DB0009F938F930E94571F0F900F9082E498E09B
:101DC0009F938F930E94571F00937D0D82E598E0AB
:101DD0009F938F930E94571F0F900F900F900F901B
:101DE000DF91CF911F910F91FF90EF9008951F9376
:101DF000182F8FE598E09F938F930E94571F0F90A5
:101E00000F90112319F08AE290E002C080E290E086
:101E10000E946C1F8DE590E00E946C1F1F91089539
:101E2000DF92EF92FF920F931F93CF93DF93D82E01
:101E3000EB01E42E00E0102F0FC00E94790A182F4A
:101E40008D3261F4002351F4E0FE08C088838DE2F6
:101E500090E00E946C1F01E0F02E5BC020E030E0BB
:101E6000E02FFF274D2D4F0D512D511DCA01019718
:101E7000E817F90714F421E030E080E090E0103337
:101E800014F081E090E08223932320E030E01A33C5
:101E900014F421E030E02823392340E050E000230F
:101EA00011F441E050E080E090E01B3211F481E059
:101EB00090E084239523822B932B009779F01B329B
:101EC00011F461E0F62EEC0FFD1F1083812F99278E
:101ED00087FD90950E946C1F0F5F1BC09C011830FE
:101EE00011F421E030E0002311F081E090E028239C
:101EF0003923232B71F0EC0FFD1F1082015009F4E0
:101F0000F02E82E698E09F938F930E94571F0F90C8
:101F10000F9080E090E01A3011F081E090E020E036
:101F200030E01D3011F021E030E082239323892B33
:101F300009F083CF1127C00FD11F188282E097E0EC
:101F40000E94731FC801DF91CF911F910F91FF90E5
:101F5000EF90DF900895DF92EF92FF920F931F931F
:101F6000CF93DF93D82E8B01EE24FE2C54C00E9419
:101F7000790ABC01F82EE0E0F0E08D2D992701965A
:101F8000C817D90714F4E1E0F0E040E050E08F2DED
:101F900080538A3010F441E050E020E030E08F2D93
:101FA0008156863010F421E030E0242B352B40E0C0
:101FB00050E08F2D8154863010F441E050E0C9018B
:101FC000842B952B8E239F23009759F0C00FD11F90
:101FD00068838F2D992787FD90950E946C1FE3944D
:101FE0001AC09C0148E0F41611F421E030E0EE2024
:101FF00011F081E090E028233923232B61F0C00FFA
:10200000D11F1882EA9482E698E09F938F930E94F2
:10201000571F0F900F9080E090E0EAE0FE1611F05D
:1020200081E090E020E030E0FDE0FF1611F021E0DB
:1020300030E082239323CE2DDD27892B09F097CF23
:102040000C0F1D1FF801108282E097E00E94731FA1
:10205000CE01DF91CF911F910F91FF90EF90DF9014
:102060000895FF920F931F93CF93DF93182F062F9E
:10207000EA01F82E82E097E00E94731F209761F03A
:10208000DF93CF9386E698E09F938F930E94571F2C
:102090000F900F900F900F90802F992787FD9095AC
:1020A0009F938F93812F992787FD90959F938F936F
:1020B00089E698E09F938F930E94571F802F815449
:1020C0002DB73EB72A5F3F4F0FB6F8943EBF0FBE05
:1020D0002DBF8A3110F4005EF02E812F81548A3199
:1020E00010F4105EF12E0E94790A9C010D9729F4DC
:1020F0002F2D332727FD309532C0E0E0F0E0812F0F
:10210000992787FD90952817390711F0E1E0F0E055
:1021100060E070E0402F552747FD509524173507A4
:1021200011F061E070E06E237F23E0E0F0E0809743
:102130002817390711F0E1E0F0E0CB018E239F234F
:1021400060E070E0405250402417350711F061E024
:1021500070E086239723892B11F02FEF3FEF8FEF4D
:102160002F3F380709F4BFCF812F992787FD90951E
:102170002817390719F421E030E002C020E030E0F0
:10218000822F9927DF91CF911F910F91FF90089592
:102190009F92AF92BF92CF92DF92EF92FF920F93F6
:1021A0001F93CF93DF93CDB7DEB72A970FB6F8947E
:1021B000DEBF0FBECDBF8C017B015A01690180914A
:1021C0007108898387E0FE01329611928A95E9F7BA
:1021D0001A8619869924C114D10469F0DF92CF922E
:1021E00086E698E09F938F930E94571F0F900F9061
:1021F0000F900F9008C089E798E09F938F930E94FB
:10220000571F0F900F900E151F0590F4FF92EF923D
:102210001F930F938BE898E09F938F930E94571F13
:102220008DB79EB706960FB6F8949EBF0FBE8DBFB2
:10223000E016F10630F40E251F25E026F1260E25C6
:102240001F25BF92AF9285E998E09F938F930E94DC
:10225000571F40E0BE016F5F7F4F86E00E94100F66
:102260000F900F900F900F90882319F4BA86A986CB
:1022700016C0CE0109969F938F938CE998E09F93A7
:102280008F93CE0101969F938F930E94A91F8DB7C4
:102290009EB706960FB6F8949EBF0FBE8DBF20E086
:1022A00030E089859A858017910710F021E030E0B1
:1022B00040E050E0E816F90610F041E050E0242339
:1022C0003523232B39F48FE998E00E94731F99205E
:1022D00009F481CF89859A852A960FB6F894DEBFD6
:1022E0000FBECDBFDF91CF911F910F91FF90EF9067
:1022F000DF90CF90BF90AF909F9008959F92AF9244
:10230000BF92CF92DF92EF92FF920F931F93CF93E2
:10231000DF93CDB7DEB72A970FB6F894DEBF0FBEB6
:10232000CDBF8C017B015A016901809171088983BD
:1023300087E0FE01329611928A95E9F71A8619868E
:102340009924C114D10469F0DF92CF9286E698E017
:102350009F938F930E94571F0F900F900F900F9095
:1023600008C089E798E09F938F930E94571F0F90B2
:102370000F900E151F0594F4FF92EF921F930F9389
:102380008EEA98E09F938F930E94571F8DB79EB758
:1023900006960FB6F8949EBF0FBE8DBFE016F106ED
:1023A00034F40E251F25E026F1260E251F25BF92A9
:1023B000AF9288EB98E09F938F930E94571F41E064
:1023C000BE016F5F7F4F86E00E94100F0F900F904D
:1023D0000F900F90882319F4BA86A98616C0CE01F3
:1023E00009969F938F938FEB98E09F938F93CE01E5
:1023F00001969F938F930E94A91F8DB79EB7069653
:102400000FB6F8949EBF0FBE8DBF20E030E08985E7
:102410009A858017910714F021E030E040E050E009
:10242000E816F90614F041E050E024233523232B6D
:1024300039F48FE998E00E94731F992009F481CF45
:1024400089859A852A960FB6F894DEBF0FBECDBF58
:10245000DF91CF911F910F91FF90EF90DF90CF9080
:10246000BF90AF909F9008959F92AF92BF92CF92EE
:10247000DF92EF92FF920F931F93CF93DF93CDB72D
:10248000DEB728970FB6F894DEBF0FBECDBF8C0124
:102490007B015A01690180917108898385E0FE0101
:1024A000329611928A95E9F718861F829924C114F1
:1024B000D10469F0DF92CF9286E698E09F938F93E4
:1024C0000E94571F0F900F900F900F9008C082EC42
:1024D00098E09F938F930E94571F0F900F900E15B7
:1024E0001F0590F4FF92EF921F930F9388ED98E0F1
:1024F0009F938F930E94571F8DB79EB706960FB676
:10250000F8949EBF0FBE8DBFE016F10630F40E2585
:102510001F25E026F1260E251F25BF92AF9286EEDD
:1025200098E09F938F930E94571F40E0BE016F5F1A
:102530007F4F84E00E94100F0F900F900F900F902C
:10254000882319F4B886AF8216C0CE0107969F93F0
:102550008F9382EF98E09F938F93CE0101969F9384
:102560008F930E94A91F8DB79EB706960FB6F89459
:102570009EBF0FBE8DBF20E030E08F819885801711
:10258000910710F021E030E040E050E0E816F90655
:1025900010F041E050E024233523232B39F48FE958
:1025A00098E00E94731F992009F481CF8F8198854C
:1025B00028960FB6F894DEBF0FBECDBFDF91CF9146
:1025C0001F910F91FF90EF90DF90CF90BF90AF9051
:1025D0009F9008958091F608992787FD9095B82FD0
:1025E000AA278091F6088F3F41F09598ECE1FEE034
:1025F0000E94B62510927F0D959A08951F93CF9350
:10260000DF93182F9927D82FCC27969880917F0D8C
:10261000882311F00E94EA12ECE1FEE0DE010E9444
:10262000B1251093F608969ADF91CF911F910895E6
:102630001F93CF939C01892F9927C82FC770122F02
:102640002C2F33278091F608992787FD909528171E
:10265000390729F00E94EA128C2F0E94FE12E12F06
:10266000FF27E45EF14F80819927CF911F91089554
:102670000F931F93CF939C01062F892F9927C82F63
:10268000C770122F8091F608282F332727FD309529
:102690008C2F99272817390749F08091F6088F3F2A
:1026A00011F00E94EA128C2F0E94FE12E12FFF27E8
:1026B000E45EF14F008381E080937F0DCF911F9105
:1026C0000F9108958091F608992787FD909527EF3F
:1026D00038E0AC0167E070E080E090E00E94C81054
:1026E0000E94FE1208950F931F93CF9310E08091E4
:1026F000F60887FD47C08091F608992787FD9095D9
:102700009F938F9386E099E09F938F930E94571F2A
:1027100085E299E00E94731F012F0F900F900F9098
:102720000F90812F99279F938F9387E399E09F9331
:102730008F930E94571F0F900F900F900F90CFE034
:10274000E12FFF27E45EF14F808199279F938F93BC
:102750001F5F82E499E09F938F930E94571F0F9011
:102760000F900F900F90C150C7FFEACF88E499E017
:102770000E94731F0F5F0031A0F288E499E00E946D
:10278000731F08C08AE499E09F938F930E94571F9C
:102790000F900F90CF911F910F910895DF92EF92BC
:1027A000FF920F931F93CF93DD248D2D0E94FE1275
:1027B000ED2CFF24FF92EF9284E699E09F938F9394
:1027C0000E94571F00E0C02F0F900F900F900F90A6
:1027D0009E2D88278C0F911D9F938F938DE799E0F5
:1027E0009F938F930E94571F0F900F900F900F9001
:1027F00017E0EC2FFF27E45EF14F8081282F33276D
:10280000CF5FEC2FFF27E45EF14F80819927982F4F
:102810008827282B392BCF5F3F932F9384E999E0AA
:102820009F938F930E94571F0F900F900F900F90C0
:10283000115017FFDECF88E499E00E94731F0F5FED
:10284000003130F20E94D80CD39487E08D1508F047
:10285000ACCFCF911F910F91FF90EF90DF90089533
:102860008091F6088FEFECE1FEE081939FE0EB3181
:10287000F907D9F3D0F308952AE939E040E050E0B0
:102880006FEF77E0CA010E9434120E941813992753
:102890009F938F938BEB99E09F938F930E94571F89
:1028A0000F900F900F900F9008950F931F932DECA2
:1028B00039E040E050E06FEF77E0CA010E94341247
:1028C0008C010E94181399272DEE39E0AC016FEFAF
:1028D00070E080E090E00E943412682FC8010E94EE
:1028E00038131F910F9108950F931F93CF93DF9388
:1028F00081E00E94FE12C0E0D0E00CE11EE0F80191
:1029000061918F018C2F0E9435152196CF3FD10503
:10291000B1F3A8F3DF91CF911F910F9108950F9319
:102920001F93CF93DF9381E00E94FE12C0E0D0E0BE
:102930000CE11EE08C2F0E94E915F80181938F01B4
:102940002196CF3FD105B1F3A8F30E94EA12DF919F
:10295000CF911F910F91089508958091F5088F3FB1
:1029600059F480E090E00E941813813019F48093AC
:10297000F50802C01092F5088091F508992708958E
:102980000E94AD14813019F486EF99E002C08BE00B
:102990009AE09F938F930E94571F0F900F90089576
:1029A00061E080E090E00E9438138FEF8093F5089B
:1029B0000E94EA1208959498179A1F98AA27BB2795
:1029C000BC01CD010E94A9091F9A82B18E7782B9FC
:1029D000949A08959598179A1F980E94D80C82B1DE
:1029E0008F7382B91F9A959A0895169881B1992785
:1029F00080749070019721F0969A81E090E008959C
:102A0000969880E090E00895E091450AF091460A9A
:102A1000978D9F3149F41092810D1092820D109282
:102A2000830D1092800D0895892F8F708093810DF2
:102A300092959F70892F83708093820D96959695BD
:102A40009093830D81E08093800D08950E9404157A
:102A50008091800D9927089587E49AE09F938F9342
:102A60000E94571F0F900F900895982F8091800D0E
:102A7000882341F0E091450AF091460AE90FF11DE3
:102A8000608308950E942C1508950F931F93CF9390
:102A9000DF9387E69AE00E94731F80ED97E00E9423
:102AA000DB140E94F5148823E1F31FEF14BB80E8C8
:102AB00085BB8AE090E00E94DB1487E0809364008D
:102AC00083E0809365001ABB1BBA85B7806885BF19
:102AD00080916C00806880936C000E94AD14882304
:102AE00081F18BE89AE00E94731F6CED75E080E045
:102AF00090E00E94A9090E9426158823F9F089EA2E
:102B00009AE00E94731F00E011E0C0E0D0E0CE0127
:102B100087709070079721F48EE290E00E946C1FFE
:102B2000C8010F5F1F4F0E941813682F8C2F0E943F
:102B300035152196C038D10550F307C08BEB9AE0CC
:102B400002C086EF9AE00E94731FDF91CF911F9120
:102B50000F910895992791600E941813992708955D
:102B6000992791600E9438130895EF92FF920F9376
:102B70001F93E82EFF24C701816091600E94181303
:102B8000082F1127102F0027C70191600E941813EA
:102B90009927802B912B1F910F91FF90EF90089513
:102BA000EF92FF920F931F938B01272F3327E82E6D
:102BB000FF24622FC701816091600E943813602F4B
:102BC000C70191600E9438131F910F91FF90EF9001
:102BD0000895282FE0E08091800D882339F0E0915E
:102BE000450AF091460AE20FF11DE0818E2F9927E8
:102BF00008951F93CF93DF93182FEB018091800DE1
:102C0000882361F0872F9927682F812F8F5F0E947B
:102C100035156C2F812F0E94351502C00E942C158E
:102C2000DF91CF911F9108951F93CF93DF93182FBA
:102C3000C0E0D0E08091800D882379F0812F8F5FF4
:102C40000E94E915C82FDD27DC2FCC27812F0E9499
:102C5000E9159927C82BD92B02C00E942C15CE014B
:102C6000DF91CF911F91089583E39BE00E94731F32
:102C700088EE93E00E94DB1408950E940415809171
:102C8000800D8823F1F08091810D99279F938F9378
:102C90008091820D99279F938F938091830D99271F
:102CA0009F938F938AE49BE09F938F930E94571F7B
:102CB0008DB79EB708960FB6F8949EBF0FBE8DBF16
:102CC00008958AE69BE09F938F930E94571F0F9071
:102CD0000F9008950F931F93CF93182F062F809175
:102CE000800D882321F0812F0E94E91503C0812FD8
:102CF0000E94AA15C82F9927602F7727062E02C099
:102D0000959587950A94E2F780FF0CC081E090E0EA
:102D100002C0880F991F6A95E2F78095C8238CE856
:102D20009BE00AC081E090E002C0880F991F6A957D
:102D3000E2F7C82B89E99BE00E94731F6C2F812F5B
:102D40000E94B0158091800D882321F06C2F812F77
:102D50000E943515CF911F910F91089560E0862F45
:102D60000E946A16089561E080E00E946A16089544
:102D7000CF93DF9386E00E94B51525EA3BE0AC01D6
:102D80006FEF7FEF80E090E00E94C810EC01BC0183
:102D900086E00E94D015BE0186E00E94F915DF9101
:102DA000CF9108958F929F92AF92BF92CF92DF9270
:102DB000EF92FF920F931F93CF93DF9361E0862EE4
:102DC00081EB9BE00E94731F57E0952E47E0A42EF5
:102DD000B12CCEE0D0E08C2F805C0E94B515AA27E4
:102DE00097FDA095BA2FBC01CD010E9407256B016C
:102DF0007C01FE01EB5CF54F00811181C801AA271F
:102E000097FDA095BA2FBC01CD010E94072517FFA1
:102E100006C020E030E040E857E40E94C3249B0154
:102E2000AC01C701B6010E94B21C6B017C0120E01D
:102E300030E040E050E00E94EA23882309F44EC0CD
:102E40008820E9F420E030E040E050E0C701B6011E
:102E50000E94EA2388235CF481E09CE09F938F9397
:102E60000E94571FF7FAF094F7F8F09406C085E037
:102E70009CE09F938F930E94571F0F900F90992073
:102E800039F4FF92EF92DF92CF9289E09CE009C083
:102E900091E0991671F4FF92EF92DF92CF9281E167
:102EA0009CE09F938F930E94571F8DB79EB7069605
:102EB0000FC0BF92AF92FF92EF92DF92CF9289E163
:102EC0009CE09F938F930E94571F8DB79EB70896E3
:102ED0000FB6F8949EBF0FBE8DBF88249A940894B5
:102EE000A108B108229797FE76CF0E94D80CDF91F7
:102EF000CF911F910F91FF90EF90DF90CF90BF90F7
:102F0000AF909F908F900895CF92DF92EF92FF92B3
:102F10000F931F93CF93DF9307E0E7E0CE2ED12CE2
:102F200073E4E72E7AE0F72ECEE0D0E0F70180815F
:102F300091812EEF3FEFE20EF31E9F938F93DF926E
:102F4000CF9284E29CE09F938F930E94571F1C2F87
:102F5000105C812F0E94B515AC0120E43CE06FEFBE
:102F60007FE780E090E80E947E11BC01812F0E94E3
:102F7000D0158DB79EB706960FB6F8949EBF0FBEBC
:102F80008DBF01500894C108D108229707FFCECF0A
:102F9000DF91CF911F910F91FF90EF90DF90CF9035
:102FA00008952F923F924F925F926F927F928F92ED
:102FB0009F92AF92BF92CF92DF92EF92FF920F93C8
:102FC0001F93CF93DF93CDB7DEB7CA58D0400FB66B
:102FD000F894DEBF0FBECDBFEE24FF2487E0382E6D
:102FE00005E3602E0AE0702E67018C2D805C0E9444
:102FF000B515AA2797FDA095BA2FBC01CD010E9457
:1030000007254B015C01D3010D911D913D01C801C4
:10301000AA2797FDA095BA2FBC01CD010E940725D4
:1030200017FF06C020E030E040E857E40E94C324C8
:103030009B01AC01C501B4010E94B21C4B015C01B3
:10304000FE01EE0DFF1D61837283838394833A94A6
:10305000E2E0F0E0CE0EDF1E84E090E0E80EF91E24
:1030600037FEC3CF1EEC212E8EEC9FEFAFEFBFEFEC
:10307000C957DF4F88839983AA83BB83C758D04041
:103080000F2EF0E0EF2EF0E0FF2EF0E00F2FF0E03B
:103090001F2FF02DC957DF4F688179818A819B816D
:1030A000C758D0400E940725DC01CB0120E030E06A
:1030B00048E452E4BC01CD010E94B21C2B013C014A
:1030C0003324CB57DF4F19821882C558D0403320A4
:1030D00059F40F2EF0E08F2EF0E09F2EF0E8AF2E87
:1030E000FFE3BF2EF02D0EC091E0391619F4530105
:1030F000420108C0A3019201C501B4010E947A24D3
:103100004B015C016E010894C11CD11CCB57DF4FF1
:10311000E881F981C558D040EC0DFD1D8081918179
:10312000A281B3819C01AD01C501B4010E947A2442
:10313000DC01CB019C01AD01C801B7010E94C32491
:103140007B018C013394CB57DF4FA881B981C558DF
:10315000D0401496CB57DF4FB983A883C558D040D1
:10316000B7E0B31508F0B3CF20E030E040E85FE30C
:103170000E94C32420E030E040E851E40E947A2419
:1031800020E030E040E05FE30E94C3247B018C013B
:1031900020E030E040E052E40E94ED23181674F481
:1031A000C957DF4FE881F981C758D040CE0EDF1EE6
:1031B00082E390E0C80ED91E80E225C020E030E016
:1031C00040E050E0C801B7010E94EA23C957DF4F31
:1031D00028813981C758D04088234CF4C20ED31EB1
:1031E00082E390E0C80ED91EF60110A20EC0C20EF6
:1031F000D31E82E390E0C80ED91EC801B7010E9419
:10320000CF23DC01CB01F60180A32394C957DF4F04
:1032100088819981AA81BB81C758D0400196A11DA0
:10322000B11DC957DF4F88839983AA83BB83C758D1
:10323000D04092E392150CF023CF82E49CE00E94F0
:10324000731F83E59CE00E94731F8CE59CE00E9445
:10325000731F85E69CE09F938F930E94571F222443
:103260000F900F90A2E32A1619F48BE290E002C0AF
:103270008DE290E00E946C1F2394B4E6B21594F79F
:103280008DE69CE00E94731FB0E2FB2EA0E2CA2EE6
:10329000D12CF0E7AF2EFCE0BF2EBF92AF920E9480
:1032A000571F0F900F90FF2019F489E79CE011C081
:1032B000E0E1FE1649F480E89CE09F938F930E9422
:1032C000571F0F900F9017C0F0E2FF1649F487E8E0
:1032D0009CE09F938F930E94571F0F900F900EC0FA
:1032E0008EE89CE09F938F930E94571F0F900F9042
:1032F00080E1F81619F485E99CE002C08CE99CE0B5
:103300009F938F930E94571F0F900F90222400E0ED
:1033100010E0FE01E00FF11F81A19927C816D90620
:1033200019F48AE290E024C092E3291699F4BF923E
:10333000AF920E94571F0F900F90A0E1FA1619F458
:103340008BE290E002C08CE790E00E946C1F83EA61
:103350009CE005C0B0E1FB1649F489EA9CE09F932C
:103360008F930E94571F0F900F9004C080E290E04F
:103370000E946C1F23940F5F1F4FE4E6E2154CF68A
:10338000F0E1FF1619F488EB9CE002C083EC9CE0AE
:103390000E94731FFA940894C108D108F7FE79CFF0
:1033A0008EEC9CE09F938F930E94571F22240F90D6
:1033B0000F9082E3281619F48BE290E002C08DE2B0
:1033C00090E00E946C1F239494E6921594F78EED82
:1033D0009CE00E94731F84EE9CE09F938F930E9459
:1033E000571F33240F900F9000E310E080E290E02D
:1033F0000E946C1F0150104017FFF8CF8CE790E03F
:103400000E946C1F3394A1E0A31570F78DEE9CE031
:103410009F938F930E94571F0F900F900FE210E021
:1034200080E290E00E946C1F0150104017FFF8CF1F
:1034300080E390E00E946C1F0FE210E080E290E0D9
:103440000E946C1F0150104017FFF8CF89EF9CE0DD
:103450009F938F930E94571F0E94D80C0F900F903C
:10346000C657DF4F0FB6F894DEBF0FBECDBFDF915A
:10347000CF911F910F91FF90EF90DF90CF90BF9071
:10348000AF909F908F907F906F905F904F903F9004
:103490002F9008950F931F9388E290E00E946C1F75
:1034A0008091800D882349F482E09DE09F938F9363
:1034B0000E94571F0F900F902FC082E00E94141699
:1034C0008C01C801AA2797FDA095BA2FBC01CD0198
:1034D0000E94072517FF06C020E030E040E857E4CF
:1034E0000E94C32420E030E040E85BE30E947A249D
:1034F000DC01CB01BF93AF939F938F9386E09DE058
:103500009F938F930E94571F8DB79EB706960FB655
:10351000F8949EBF0FBE8DBF89E290E00E946C1FA1
:103520001F910F910895CF93DF9382E00E941416AC
:103530002CE03DE0AC016FEF7FEF80E090E00E9477
:10354000C810EC01BC0182E00E94D015BE0182E0EF
:103550000E94F915DF91CF9108950F931F9388E290
:1035600090E00E946C1F8091800D882349F482E0D6
:103570009DE09F938F930E94571F0F900F902FC035
:1035800084E00E9414168C01C801AA2797FDA0951B
:10359000BA2FBC01CD010E94072517FF06C020E00D
:1035A00030E040E857E40E94C32420E030E040E8E7
:1035B0005BE30E947A24DC01CB01BF93AF939F931E
:1035C0008F9386E09DE09F938F930E94571F8DB746
:1035D0009EB706960FB6F8949EBF0FBE8DBF89E2C8
:1035E00090E00E946C1F1F910F910895CF93DF937D
:1035F00084E00E94141624E23DE0AC016FEF7FEFFF
:1036000080E090E00E94C810EC01BC0184E00E94C0
:10361000D015BE0184E00E94F915DF91CF91089585
:1036200080E00E94E9158378682F80E00E943515BC
:10363000089580E00E94E91587788460682F80E013
:103640000E943515089580E00E94E9158B78886006
:10365000682F80E00E943515089580E00E94E915EA
:10366000837F8067682F80E00E943515089588E287
:1036700090E00E946C1F0E942615882341F48DE380
:103680009DE09F938F930E94571F0F900F9081E4AE
:103690009DE09F938F930E94571F0F900F90089566
:1036A00088E290E00E946C1F8091800D882349F48D
:1036B00082E09DE09F938F930E94571F0F900F9081
:1036C0000CC080E00E94E91580FF03C08AE290E010
:1036D00002C080E290E00E946C1F89E290E00E94AC
:1036E0006C1F089588E290E00E946C1F8091800D0D
:1036F000882349F482E09DE09F938F930E94571F97
:103700000F900F900CC080E00E94E91581FF03C06C
:103710008AE290E002C080E290E00E946C1F89E2A1
:1037200090E00E946C1F089588E290E00E946C1F58
:103730008091800D882349F482E09DE09F938F93D0
:103740000E94571F0F900F9026C080E00E94E9153D
:103750008C77282F332722FF03C083E590E019C020
:1037600023FF03C080E590E014C024FF03C08EE473
:1037700090E00FC0C90180749070892B19F086E425
:1037800090E007C025FF03C084E490E002C08DE410
:1037900090E00E946C1F89E290E00E946C1F0895E7
:1037A00088E290E00E946C1F8091800D882349F48C
:1037B00082E09DE09F938F930E94571F0F900F9080
:1037C0000FC086E00E9414169F938F9382E59DE0C0
:1037D0009F938F930E94571F0F900F900F900F9001
:1037E00089E290E00E946C1F0895AF92BF92CF9241
:1037F000DF92EF92FF920F931F93CF93DF93BB243F
:10380000AB2C88E290E00E946C1F8091800D882391
:1038100019F482E09DE03CC007E047E0C42ED12CC3
:103820003EE0E32EF12C1E2D105C812F0E94B51579
:10383000EC01812F0E941416C817D90711F021E05E
:10384000B22ECD2B71F091E0A92EDF92CF9285E5BB
:103850009DE09F938F930E94571F0F900F900F90A2
:103860000F9001500894C108D1088EEF9FEFE80E29
:10387000F91E07FFD8CFAA2021F48DE290E00E9424
:103880006C1FBB2019F089E59DE002C08EE59DE02C
:103890009F938F930E94571F0F900F9089E290E0A3
:1038A0000E946C1FDF91CF911F910F91FF90EF90BD
:1038B000DF90CF90BF90AF9008950E94371B08957E
:1038C0008091800D882321F080E00E94E91502C0DC
:1038D0000E94AA158C7711F481E001C080E00E945B
:1038E000F70E08958091800D882321F080E00E94DA
:1038F000E91502C00E94AA1584700E94F70E08956F
:103900008091800D882321F080E00E94E91502C09B
:103910000E94AA1588700E94F70E0895CF93809197
:10392000800D882321F080E00E94E91502C00E94EA
:10393000AA15C82FC077C03741F083E69DE09F935A
:103940008F930E94571F0F900F908C2F0E94F70E9D
:1039500083EA9CE09F938F930E94571F0F900F90D4
:10396000CF910895A8E1B0E0E8EBFCE10C9482254A
:10397000DC01CB01898B9A8BAB8BBC8B2D8B3E8B67
:103980004F8B588FBE016F5F7F4FCE0141960E94D3
:103990004A1E8E01075F1F4FB801CE0145960E9457
:1039A0004A1EFE0131962981223008F45FC0398514
:1039B000323010F4B8017BC081819A8589278183D8
:1039C000243009F455C0223009F452C0343009F4CF
:1039D00054C0323009F458C06B817C818B859C8542
:1039E000681B790B2D813E814F815885ED84FE84C3
:1039F0000F8518892E153F054007510730F4220F17
:103A0000331F441F551F615070407C836B8380E0DF
:103A100090E0A0E0B0E4AA24BB2465012E153F0588
:103A20004007510740F0A82AB92ACA2ADB2A2E19D2
:103A30003F09400B510BB695A79597958795220F97
:103A4000331F441F551F0097A105B10539F7D60153
:103A5000C5018F779070A070B07080349105A1057A
:103A6000B105A9F0A482B582C682D782BF011FC06A
:103A70002317E1F76CE67DE01AC01D821E821F82CB
:103A800018861C821B82F2CF84E08983EFCFA7FCCB
:103A900005C0211531054105510521F380E490E071
:103AA000A0E0B0E0A80EB91ECA1EDB1EDBCFCB0122
:103AB0000E94621DDC01CB01BC01CD01EAE06896E9
:103AC0000C949E25A0E0B0E0E8E6FDE10C94802592
:103AD000882499245401DC01FC012481358146812C
:103AE00057818181082F112760E070E08C9182302E
:103AF00020F46FEF70E04061A4C0843009F464C02A
:103B0000823009F463C0211531054105510509F4DE
:103B100098C0FD0182819381FFEF82389F070CF0EE
:103B200050C0A2E8EA2EAFEFFA2EE81AF90A8AE1AD
:103B3000E816F1040CF06BC06B0181E090E0A0E0AE
:103B4000B0E00E2C04C0880F991FAA1FBB1F0A9457
:103B5000D2F70197A109B10982239323A423B523A6
:103B60000097A105B10519F0F1E0CF2ED12C04C0CA
:103B70005695479537952795EA94D2F7C601AA2717
:103B800097FDA095BA2F282B392B4A2B5B2BDA01F6
:103B9000C9018F779070A070B07080349105A10535
:103BA000B105D1F1215C3F4F4F4F5F4F2030E0E036
:103BB0003E07E0E04E07E0E45E0708F161E070E0F8
:103BC0001EC0803891053CF06FEF70E020E030E0DF
:103BD00040E050E036C0BC0161587F4FDA01C901B6
:103BE0008F779070A070B07080349105A105B105F9
:103BF000D1F0215C3F4F4F4F5F4F57FD1BC097E007
:103C000056954795379527959A95D1F71AC020E094
:103C100030E040E050E0BBCF27FFC8CF205C3F4FF3
:103C20004F4F5F4FC3CF27FFE8CF205C3F4F4F4F31
:103C30005F4FE3CF56954795379527956F5F7F4F39
:103C4000DECF822E932E942F9F778A2D8078A82EF8
:103C5000A92A962F9795992797958A2D8F77A82E21
:103C6000A92A76956795962F9F778B2D8078B82E09
:103C7000B92A902F9795992797958B2D8F77B82EE6
:103C8000B92AD501C401BC01CD01ECE0CDB7DEB746
:103C90000C949C25CF93DF93FC01DB014081518183
:103CA0002281622F6F7770E0221F2227221F9381CB
:103CB000892F880F822B282F3327991F9927991F27
:103CC000ED0199832115310541F441155105610537
:103CD0007105E1F482E08C9354C02F3F310509F463
:103CE00041C02F573040FD013383228383E08C9302
:103CF00087E0440F551F661F771F8A95D1F77064C0
:103D0000ED014C835D836E837F833BC022E83FEFF0
:103D1000F901C7E0440F551F661F771FCA95D1F7F9
:103D200083E08C93403080E0580780E0680780E4AF
:103D3000780778F4440F551F661F771F21503040D5
:103D4000F9014030C0E05C07C0E06C07C0E47C07CC
:103D500088F3ED01FB83EA83FD0144835583668389
:103D600077830FC0411551056105710519F484E091
:103D70008C9307C064FF03C081E08C93C1CF1C9279
:103D8000BFCFDF91CF910895FC0105900020E9F7A6
:103D9000809590958E0F9F1F0895FC0105906150AE
:103DA00070400110D8F7809590958E0F9F1F089551
:103DB000FC016150704001900110D8F780959095FA
:103DC0008E0F9F1F08950F931F93CF93DF938C0146
:103DD000EB01009711F4672BC1F16EE070E081E018
:103DE00090E00E945722FC01892B71F180E88383C7
:103DF000209771F0D387C28781E8838380911C0F5D
:103E000090911D0F892B21F4F0931D0FE0931C0F4F
:103E100001151105C9F011870087838182608383B2
:103E200080911E0F90911F0F892B71F4F0931F0F3B
:103E3000E0931E0F8091200F9091210F892B21F488
:103E4000F093210FE093200FCF01DF91CF911F91CD
:103E50000F9108950F931F93CF93DF938C01EB0184
:103E60008B81992781FF1CC082FF0DC02E813F816D
:103E70008C819D812817390764F4E881F9810193C9
:103E8000F983E88306C0E885F985802F0995892B99
:103E900039F48E819F8101969F838E83C80102C071
:103EA0008FEF9FEFDF91CF911F910F910895CF93E7
:103EB000DF93CDB7DEB7E5E0F0E0EC0FFD1F8191B9
:103EC0009191AF01BC0180911E0F90911F0F0E9434
:103ED000E401DF91CF91089560911E0F70911F0F43
:103EE0000E942A1F08950F931F93CF93DF93EC0135
:103EF00000E010E0E0911E0FF0911F0F838181FD23
:103F000003C08FEF9FEF20C08991882371F0E0916B
:103F10001E0FF0911F0F20853185BF01F901099512
:103F2000892B91F30FEF1FEFEFCFE0911E0FF09170
:103F30001F0F20853185BF018AE0F9010995892B82
:103F400011F00FEF1FEFC801DF91CF911F910F917B
:103F50000895CF93DF93CDB7DEB72E970FB6F894C1
:103F6000DEBF0FBECDBF8B899C896D897E8925E020
:103F70002C839A838983AE01495E5F4FCE010196FF
:103F80000E94CB1F2E960FB6F894DEBF0FBECDBF9A
:103F9000DF91CF9108952F923F924F925F926F924F
:103FA0007F928F929F92AF92BF92CF92DF92EF92C9
:103FB000FF920F931F93CF93DF93CDB7DEB7289770
:103FC0000FB6F894DEBF0FBECDBFEE24FF248701ED
:103FD0005C017A8369834A015524222433246101D8
:103FE0002FEF3FEF3C832B83FC01378226823E82FA
:103FF0002D82838180FD15C2C90140C229813A8189
:104000002F5F3F4F3A832983452D552758874F838C
:1040100040FFCFC155E2751619F48EEF5822F3C157
:10402000972D90539A3058F4EFE76E1611F46624EA
:1040300004C08AE0689E602C1124690EF2C1872DAD
:10404000992787FD90950E94CA25782E282F33271F
:1040500027FD30952E36310509F480C12F36310504
:10406000F4F42836310509F4DCC1293631057CF435
:104070002336310599F12436310524F42A323105ED
:1040800039F17BC12436310509F492C076C1293655
:10409000310509F48DC02C363105E9F06EC12337A6
:1040A000310509F447C0243731054CF42F3631056A
:1040B00009F475C02037310509F476C05EC1253793
:1040C000310509F473C02837310509F46DC055C1B5
:1040D000F0E15F2AA6C124E0522AA3C13F8134FD4A
:1040E00007C0F40142E050E0840E951EE080F180AC
:1040F0005FE7651611F471E0672E862D6A94181635
:104100000CF03BC1C5010E9470236C018FEFC816F3
:104110008FEFD80609F493C19F8194FDEECFF7018C
:10412000C0820894E11CF11CE8CFB501C6010E94D1
:10413000B32330C0EF81E4FD07C0F40122E030E09A
:10414000820E931EE080F180C5010E9470236C01F5
:104150000E94BB25892BC1F73FEFC3163FEFD30663
:1041600009F46DC1862D6A941816A4F4C6010E9444
:10417000BB25892BD1F64F8144FD05C0F701C082D4
:104180000894E11CF11CC5010E9470236C018F5F33
:104190009F4F41F754FCF1C0F7011082EEC068E078
:1041A000462E82E0582A04C050E1452E92E0592A5A
:1041B000C5010E9470236C010E94BB25892BC1F7A9
:1041C000EFEFCE16EFEFDE0609F439C1FDE2CF16B0
:1041D00019F02BE2C21689F46A9416140CF02FC160
:1041E0003DE2C31611F448E0542AC5010E94702331
:1041F0006C018F5F9F4F09F422C180E3C81699F5C7
:10420000EE24FF2487016A9416140CF07AC0C501CD
:104210000E9470236C019FEFC9169FEFD90609F425
:1042200070C0C6010E94CA258837C1F4EFE67E1629
:1042300031F0F4E67F1619F025E7721629F4B5017E
:10424000C6010E94B3235DC040E1442EC5010E9417
:1042500070236C018F5F9F4F31F453C049E6741691
:1042600011F438E0432EEE24FF248701C6010E949A
:10427000CA25C09798878F838A30910544F0C197EB
:1042800098878F8397FD03C00A9698878F838F81C5
:10429000988597FD07C0842D9927EF81F885E81749
:1042A000F9072CF0B501C6010E94B32320C0242DCC
:1042B000332744275527C801B7010E94F1257B0108
:1042C0008C012F813885C901AA2797FDA095BA2FA7
:1042D000E80EF91E0A1F1B1F6A94161444F4C50148
:1042E0000E9470236C018F5F9F4F09F0BFCF53FE78
:1042F00008C010950095F094E094E11CF11C011D9C
:10430000111D252D332724FD38C0C90186709070FA
:10431000069731F4F40142E050E0840E951E0EC081
:1043200021FF06C0F40182E090E0880E991E10C0C3
:10433000C401029622FF0AC0F4014C010190F081F1
:10434000E02DE082F1820283138317C0F4014C0157
:104350000190F081E02DF182E0820FC09F8194FDF9
:104360000CC0F40122E030E0820E931EA081B181E6
:10437000F501868197818D939C93F50186819781C4
:104380002D813E812817390744F454FC03C008945A
:10439000211C311C1C821B820AC03EE6731609F0E8
:1043A0004EC04FEFC4164FEFD40609F448C0552451
:1043B00038C055E2751669F421E0522E9AE0492E74
:1043C000F5010680F781E02DFE83ED838FE7682EEF
:1043D00028C0872D992787FD90950E94BB25892BA2
:1043E00091F0C5010E9470236C010E94BB25892BAE
:1043F000C1F7FFEFCF16FFEFDF0609F1B501C601E8
:104400000E94B3230EC0C5010E9470236C018F5F10
:104410009F4FA9F0872D992787FD9095C816D9063B
:1044200071F4F501838183FF04C0E981FA817490FE
:1044300003C0E981FA817080772009F0DFCD252D56
:10444000332720FF0FC0F501868197814D815E8162
:10445000481759073CF424FD03C00894211C311C63
:104460001C821B825FEFC5165FEFD50631F4211465
:10447000310419F48B819C8101C0C10128960FB6CB
:10448000F894DEBF0FBECDBFDF91CF911F910F918A
:10449000FF90EF90DF90CF90BF90AF909F908F9064
:1044A0007F906F905F904F903F902F9008950F9363
:1044B0001F93CF93DF93869F8001879F100D969F58
:1044C000100D1124C8010E947322EC01009729F0FD
:1044D000A80160E070E00E946923CE01DF91CF91D6
:1044E0001F910F910895CF93DF93AC01029710F4C1
:1044F00042E050E020E030E0A091240FB091250F81
:10450000BD01F901109709F44CC08D919C91119750
:104510008417950731F14817590738F421153105EB
:1045200019F08217930708F49C01FD01A281B38161
:10453000109759F721153105A1F1C901841B950B7D
:10454000049708F4A901DB01E0E0F0E0109749F1DD
:104550008D919C91119782179307F9F44217530795
:1045600079F4ED018A819B81309719F093838283DE
:1045700004C09093250F8093240FCD0102964AC06A
:10458000241B350BFD01E20FF31F41935193225081
:1045900030402D933C93CF013DC0FD01A281B381FA
:1045A000D5CF8091220F9091230F892B41F48091D8
:1045B000760D9091770D9093230F8093220FE091C9
:1045C000740DF091750D309741F4EDB7FEB7809101
:1045D000780D9091790DE81BF90BA091220FB09105
:1045E000230F9F012A1B3B0B2417350788F0CA01B4
:1045F00002962817390760F0CD01840F951F0296A7
:104600009093230F8093220F4D935D93CD0102C0B1
:1046100080E090E0DF91CF910895CF93DF930097F2
:1046200009F454C0DC011297ED011B821A828091BB
:10463000240F9091250F009721F1FC0140E050E0FC
:10464000EA17FB0718F1ED01FB83EA832D913C91FA
:104650001197C20FD31FCE0102968E179F0771F4D8
:104660008A819B81280F391F2E5F3F4F11963C9303
:104670002E9382819381FD0193838283411551059D
:1046800059F4B093250FA093240F20C0AF010280EE
:10469000F381E02D3097A1F6EA01BB83AA83CA011A
:1046A000029628813981820F931F8A179B0771F424
:1046B0008D919C911197280F391F2E5F3F4F3983A1
:1046C0002883FD01828193819B838A83DF91CF912F
:1046D0000895DC0101C06D9341505040E0F708950A
:1046E000CF93DF93EC014B81842F992780FF2EC05D
:1046F00086FF09C04F7B4B838E819F8101969F83EC
:104700008E838A812CC082FF11C0E881F98180816B
:10471000282F332727FD30952115310519F44062E4
:104720004B8314C03196F983E88313C0EA85FB8577
:10473000CE0109959C0197FF0CC08B8199272F5FB3
:104740003F4F11F4806101C080628B838FEF9FEF38
:1047500007C08E819F8101969F838E83822F992728
:10476000DF91CF910895AC01FB012381822F99271E
:1047700080FF06C086FD04C08FEF4F3F580719F435
:104780008FEF9FEF0895428320642F7D23838681DE
:104790009781019797838683842F9927089597FBA4
:1047A00047D09F3738F0FEE9F91B982F872F762FD7
:1047B0006B2F05C05AC09695879577956795F150F0
:1047C000D0F73EF490958095709561957F4F8F4F0F
:1047D0009F4F08950ED05EF004C00BD026F001C0AC
:1047E00008D019F020F48FEF089580E0089581E05B
:1047F000089597FB092E052600F8689410D0E894D8
:1048000007FC07C0621773078407950721F008F4B7
:104810000094079498940895052E092607FA440FEA
:10482000551F5F3F79F0AA27A51708F051E047957B
:10483000880F991F9F3F31F0BB27B91708F091E00F
:10484000879508959F919F91112408C197FB880F28
:10485000991F9F3F31F0BB27B91708F091E087956A
:1048600008959F919F911124F9C066277727882783
:10487000992708959F3F59F4803C49F481E0992796
:10488000089590688923872386238395B9F3882721
:1048900099270895DBDFCF93DF93D52FC42F5527BA
:1048A0004427332722279923D9F09F37C8F0F92FBF
:1048B000BDD0592F482F372F262FF63968F46FDFD8
:1048C000A6D0C030CD0721F069937993899399934D
:1048D0009058DF91CF9157C099278827772766276F
:1048E000C030CD0721F02993399349935993DF9133
:1048F000CF919CC091DF01D099C0992339F0552305
:1049000029F09F575F57950F13F49AF1B1CF915843
:104910009F3FE1F3629FA12D0F92BB27639FA00DE4
:10492000B11DEE27729FA00DB11DEE1FAF93AA27F8
:10493000649FB00DE11D739FB00DE11DAA1F662796
:10494000829FB00DE11DA61F5527749FE00DA11D8C
:10495000551F839FE00DA11D561F849FA00D511D63
:10496000852F7A2F6E2F1F900F9088231AF493951E
:1049700039F474C0000C111CBB1F661F771F881F01
:10498000012808955058192E47DF01D04FC0BA179B
:104990006207730784079507B1F188F40EF4109449
:1049A0000B2EBA2FA02D062E622F202D072E732F2F
:1049B000302D082E842F402D092E952F502DFF27A6
:1049C0005523B9F0591B49F0573E98F04695379555
:1049D0002795A795F0405395C9F776F0BA0F621F57
:1049E000731F841F30F4879577956795B795F040CE
:1049F000939517FA0F2E0895BF1BBB27BA0B620BB6
:104A0000730B840BF6CFDEF633CFE89403C097FB2D
:104A10000EF4D8DEB62F672F782F892F9EE9002459
:104A200005C09A95BB0F661F771F881F1124992315
:104A3000A1F08823B2F79F3F59F0BB0F48F421F44F
:104A4000002011F460FF04C06F5F7F4F8F4F9F4FB6
:104A5000881F9795879597F9089507CF9FEF80EC6A
:104A6000089597FB092E07260AD077FD04D02ED093
:104A700006D000201AF4709561957F4F0895F6F7DF
:104A8000909581959F4F0895A1E21A2EAA1BBB1BFA
:104A9000FD010DC0AA1FBB1FEE1FFF1FA217B3070A
:104AA000E407F50720F0A21BB30BE40BF50B661F20
:104AB000771F881F991F1A9469F7609570958095E4
:104AC00090959B01AC01BD01CF010895AA1BBB1BB2
:104AD00051E107C0AA1FBB1FA617B70710F0A61BFE
:104AE000B70B881F991F5A95A9F780959095BC011F
:104AF000CD0108952F923F924F925F926F927F92D5
:104B00008F929F92AF92BF92CF92DF92EF92FF92DD
:104B10000F931F93CF93DF93CDB7DEB7CA1BDB0B89
:104B20000FB6F894DEBF0FBECDBF09942A8839882E
:104B300048885F846E847D848C849B84AA84B98435
:104B4000C884DF80EE80FD800C811B81AA81B98141
:104B5000CE0FD11D0FB6F894DEBF0FBECDBFED0155
:104B600008951ED001921A94E1F70895019020D083
:104B70001A94E1F70895911127C0803251F08A30DC
:104B800041F08C3031F08D3021F0893011F08B30D4
:104B900099F708958F931DD08F9109F08062089541
:104BA000E199FECFBFBBAEBBE09A11960DB208955E
:104BB000E199FECFBFBBAEBB0DBA11960FB6F8940C
:104BC000E29AE19A0FBE089599278827089585FDF6
:104BD000FBCF80629111F8CF8136ECF38B37DCF795
:104BE0000895629FD001739FF001829FE00DF11D37
:104BF000649FE00DF11D929FF00D839FF00D749F57
:104C0000F00D659FF00D9927729FB00DE11DF91F02
:104C1000639FB00DE11DF91FBD01CF01112408955F
:024C2000FFCFC4
:104C22000D001B5B30313B33316D001B5B30306D4F
:104C3200006661696C65642121210D0A0020776894
:104C4200696C6520737769746368696E67206F6E3B
:104C520020002573355620202573257300257333D4
:104C6200563320257325730025733256352025735C
:104C72002573002573315632202573257300257361
:104C82003256352573257325730025733520562535
:104C9200733256352025732573002573315632251C
:104CA20073257325730025733556202573315632CB
:104CB2002025732573001B5B30313B33326D20207E
:104CC200506F776572204F4B1B5B30306D0D001BB0
:104CD2005B30313B33346D44697361626C696E677A
:104CE2002074686520706F77657220737570706CC0
:104CF2006965732028322C35562C20312C325629E6
:104D02001B5B30306D0D001B5B30313B33346D5318
:104D12007769746368696E67206F6E20322E35562C
:104D22001B5B30306D0D001B5B30313B33346D53F8
:104D32007769746368696E67206F6E20312E325610
:104D42001B5B30306D0D00496E697469616C697A64
:104D52006174696F6E0D00496E697469616C697A7C
:104D6200696E672064656C61792074696D65722073
:104D72002832292E2E2E0D0044697361626C652043
:104D82004A5441472E2E2E0D00454550524F4D207C
:104D9200436865636B3A001B5B30313B33326D20F5
:104DA20056616C6964211B5B30306D001B5B3031D6
:104DB2003B33316D20496E76616C6964211B5B3037
:104DC200306D000D0A4650474120436F6E66696799
:104DD2007572696E67001B5B30313B33316D506F0A
:104DE200776572206661696C6564207768696C65B5
:104DF200206F7065726174696E672028436F646505
:104E02002025782921205368757420646F776E20DD
:104E1200616E642061626F7274211B5B30306D00C1
:104E22003356330000325635000031563200003519
:104E320056200000000000000000000000000000FA
:104E42000000000000000000000000000000000060
:104E52000000000000000000000000000000000050
:104E62000000000000000000000000000000000040
:104E72000000000000000000000000000000000030
:104E82000000000000000000000000000000000020
:104E92000000000000000000000000000000000010
:104EA2000000000000000000000000000000000000
:104EB200000000000000000000000025732069735C
:104EC2003A202564206D560D0A000D0A4375727250
:104ED200656E7420706F77657220737570706C796F
:104EE20020766F6C74616765730D000D00D9060042
:104EF2000100000000C906010000006F0CBE06019F
:104F02000000003416950601000000EA0C8A060132
:104F120002000000007E0601030000000078060285
:104F2200000000341661060200371B3D16560602C9
:104F320000501BAE164B060200721BB3163E060251
:104F420004941B00002F060200D01BB8161B060299
:104F520000F51B8417060602000000D216F10502B6
:104F6200000000D117E40502004A1A931AD705027D
:104F720000AD1AF61ACB050300AC146213B5050393
:104F82000000007313A00503000000CE138D05037B
:104F9200000000EA1281050300000030146A0503D4
:104FA2000000003C1454050300000055143C0503A6
:104FB2000000007414280503005D1C8F140F050304
:104FC20000C014D014FC040400601C101BED040487
:104FD20000721C191BDC040400801C231BC5040482
:104FE200008E1C2D1B4E6F20427970617373202836
:104FF200446973746F7274696F6E290050617261D3
:105002006C6C656C20427970617373090053657230
:1050120069616C2042797061737309004D75746522
:105022002042797061737320286F66662909004DEA
:10503200616B6520454550524F4D20636F6E666926
:10504200672076616C6964005361766520437572EE
:1050520072656E7420436F6E66696700436F6E6699
:10506200696720465047412066726F6D2045455062
:10507200524F4D0057726974652076616C756520D8
:10508200746F20454550524F4D0052656164207641
:10509200616C75652066726F6D20454550524F4DAB
:1050A20000457261736520636163686500536176D0
:1050B2006520636163686520636F6E74656E74005A
:1050C200446973706C61792077686F6C652045451F
:1050D20050524F4D00446973706C61792063616373
:1050E200686520636F6E74656E7400436163686502
:1050F20020426C6F636B0053657420444143204728
:1051020061696E0053657420414443204761696EB2
:1051120000506C6F7420646973746F7274696F6E7F
:1051220020706F6C790053686F7720646973746FB5
:105132007274696F6E20706F6C7900446973746F5A
:105142007274696F6E2073657474696E677300534D
:105152006574204E6F697365206761696E00526FD6
:105162007574696E67204D656E7500546F67676C64
:10517200652044414300546F67676C652041444396
:105182000053686F7720686172647761726520727C
:1051920065766973696F6E00526573657400454583
:1051A20050524F4D204D656E750046504741204D7F
:1051B200656E75650053686F7720504F52542073A7
:1051C2007461747300456E746572204A54414720BD
:1051D20050726F6772616D2073746174650046501E
:1051E200474120526573657400537570706C792065
:1051F200766F6C7461676573004D61696E204D65F1
:105202006E75000D0A507265737320616E79206BA2
:10521200657920746F20636F6E74696E75652E2ECA
:105222002E000D004E616D65207C2020504F52549F
:105232002020444452202050494E0D002D2D2D2D6A
:105242002D2B2D2D2D2D2D2D2D2D2D2D2D2D2D2D8E
:105252002D2D0D0041202020207C20202530327869
:105262002020202025303278202020253032780D51
:105272000A0042202020207C202025303278202065
:10528200202025303278202020253032780D0A0067
:1052920043202020207C202025303278202020200E
:1052A20025303278202020253032780D0A00442023
:1052B2002020207C202025303278202020202530FC
:1052C2003278202020253032780D0A004520202017
:1052D200207C202025303278202020202530327872
:1052E200202020253032780D0A0046202020207C04
:1052F20020202530327820202020253032782020AE
:1053020020253032780D0A0047202020207C2020E2
:105312002530327820202020253032782020202588
:105322003032780D0A000D0A0D003D3D3D3D20252D
:1053320073203D3D3D3D000D0A2025632920257344
:105342002000203D3D3E20000D0A202E29204261F2
:10535200636B0D0A203029204D61696E204D656E08
:1053620075000D0A2068292054686973204D656E06
:1053720075000D0A53656C656374696F6E3A0009B6
:105382005B00082008002573002825632F25632968
:10539200000000000000000000506C656173652091
:1053A200676976652076616C756500205B25752ED0
:1053B2002E25755D00207B25757D3A0025750049F7
:1053C2006E76616C696420696E7075740D00205B85
:1053D20025642E2E25645D00207B25647D3A002500
:1053E2006400506C65617365206769766520484585
:1053F200582D76616C756500205B307825782E2EED
:10540200307825785D00207B307825787D3A203011
:105412007800257800FFFF426C6F636B20746F2069
:105422006361636865000D0A454550524F4D206225
:105432006C6F636B20256420697320636163686508
:10544200642E0D0A004974277320636F6E74656EB3
:10545200742069733A0D005B3078253032785D2014
:1054620020002530327820000D004E6F20626C6FD4
:10547200636B2063757272656E746C79206361630D
:10548200686564001B5B30313B33316D426C6F6386
:105492006B3A2025640D0A1B5B30306D001B5B30BC
:1054A200313B33346D5B3078253034785D201B5BC3
:1054B20030306D00253034782000526561642076EA
:1054C200616C75652066726F6D20454550524F4D77
:1054D2000D0A2041646472657373002056616C7515
:1054E20065203A203078253032780D0A00577269EB
:1054F20074652076616C756520746F204545505245
:105502004F4D0D0A20416464726573730020566129
:105512006C7565202000281B5B30313B33326D56A1
:10552200616C69641B5B30306D290028454550521F
:105532004F4D2064617461201B5B30313B33316D10
:105542006E6F741B5B30306D2076616C69641B5B1F
:1055520030306D2900004000200020002000200093
:10556200200020002000801B5B30313B33316D4E28
:105572006F206669726D776172651B5B30306D20DA
:105582006C6F61646564001B5B30313B33346D5278
:1055920065636F6E6669677572696E67204650470C
:1055A200412E2E2E1B5B30306D0D00576169742029
:1055B2007768696C6520465047412072657365744F
:1055C20074696E672E2E2E0D00436F6E66696775C5
:1055D20072696E6720465047410D001B5B30313BBC
:1055E20033316D4650474120686173206E6F2066EB
:1055F20069726D77617265206C6F616465642C20DD
:105602006E6F7420636F6E6669677572696E671B71
:105612005B30306D0D001B5B30313B33316D4545E6
:1056220050524F4D206E6F7420636F6E66696775BE
:105632007265642C20736F206E6F7420636F6E66C8
:1056420069677572696E6720465047411B5B30304F
:105652006D0D00526573657474696E67204650471C
:105662004120666F722031730D000D0A465047418A
:10567200205265766973696F6E3A2025642E253053
:1056820031642E253032640D0A001B5B30313B330E
:10569200316D4E4F204649524D57415245204C4F95
:1056A200414445440D0A1B5B30306D005475726EE7
:1056B2006564206F6666210D005475726E65642004
:1056C2006F6E210D004E6F697365206C6576656C97
:1056D20000446973746F7274696F6E20706F6C79B5
:1056E2006E6F6D69616C2069732028697272656CD6
:1056F2006576616E7420656C656D656E747320737A
:105702007570707265737365642C2076616C756553
:10571200732066726F6D20454550524F4D293A0DE8
:1057220000202D2000202B200025332E32660D0A6A
:105732000025332E32662A780025332E32662A78E7
:105742005E256400785E256420666163746F722052
:10575200287363616C65206279202564293A2000F0
:1057620020001B5B30313B33346D20202020202071
:105772004F0D00202020202020550D002020202029
:105782002020540D002020202020202B002B0D0053
:105792001B5B30313B33346D002D312E30202D0018
:1057A20020202030202D0020312E30202D002020DE
:1057B20020202020002B1B5B30306D007C1B5B30D7
:1057C200306D001B5B30306D001B5B30313B33347E
:1057D2006D2D1B5B30306D001B5B30313B33346D04
:1057E2002B0D001B5B30313B33346D7C0D001B5B9A
:1057F20030313B33346D2020202020202B002B2001
:10580200494E0D00202020202020207C000D0A205F
:10581200202020202D312E3000312E301B5B3030E5
:105822006D006F66660025332E336600496E707513
:1058320074206761696E20287363616C653A203257
:10584200353629004F7574707574206761696E2052
:10585200287363616C653A2032353629006E6F20F9
:10586200006669726D77617265206C6F6164656450
:10587200290025750025642000453C3E4600453D33
:105882003D46001B5B30313B33316D0000000000B0
:0A589200000000000000260F2000B7
:00000001FF
